:1000000017C1000046C1000044C1000042C1000009
:1000100040C100003EC100003CC100003AC10000E8
:1000200038C1000036C1000034C1000032C10000F8
:1000300030C100002EC100002CC100002AC1000008
:1000400028C1000026C1000024C1000022C1000018
:1000500020C100001EC100001CC100004EC50000F0
:1000600018C1000099C100006EC1000012C100005B
:1000700010C100000EC100000CC100000AC1000048
:1000800008C1000006C1000004C1000002C1000058
:1000900000C10000FEC00000FCC00000FAC000006B
:1000A000F8C00000F6C00000F4C00000F2C000007C
:1000B000F0C00000EEC00000ECC00000EAC000008C
:1000C000E8C00000E6C00000E4C00000E2C000009C
:1000D000E0C00000DEC00000DCC00000DAC00000AC
:1000E000D8C000009002940298029C02A002A402D0
:1000F000A802DA03E103E803EF03F6030E04FD03AD
:100100000E04040483048604750479047D04BD048C
:100110008A048E04940498049C04A204A604AA04ED
:10012000BD04B004B404B80400000A0B02090C0DAD
:100130000E0807030401000000000000000000009A
:1001400000000000000000000000000000000000AF
:10015000000000001211100000000000000000006C
:10016000000000000000000000000000000000008F
:100170002200250028002B002E003100340002014F
:100180000000050108010B010000210024002700E8
:100190002A002D0030003300010100000401070196
:1001A0000A010505050507050808080802020202FC
:1001B0000A0A080804040404010101010101010103
:1001C0000303030303030303040707070C0C0C0CCE
:1001D0000C0C0C0C020202020606060606060606B7
:1001E0000B0B0B0B0B0B0B0B010210202008081044
:1001F0002040102040800201020108040201010297
:10020000040810204080804020100804020180046F
:1002100002018040201008040201080402010102CA
:100220000408102040800102040810204080920C35
:1002300011241FBECFEFD1E2DEBFCDBF00E00CBF67
:1002400024E0ACE5B2E001C01D92A93FB207E1F79E
:1002500012E0A0E0B2E0E8EAFFE100E00BBF02C07C
:1002600007900D92AC35B107D9F711E0C8E1D1E0A4
:1002700000E006C021970109802FFE010E94C60FF1
:10028000C731D10780E00807A9F70E94B7090C948D
:10029000D20FB6CE089580E090E0089589E692E00E
:1002A000E2D021E0892B09F420E0822F0895EF921B
:1002B000FF920F931F93CF93DF93EC0181E0888F20
:1002C0009B8D8C8D981305C0E889F989808185FD07
:1002D00025C0F62E0B8D10E00F5F1F4F0F731127F7
:1002E000E02E8C8DE8120BC00FB607FCFACFE88920
:1002F000F989808185FFF5CFCE0193D2F2CF8B8D26
:10030000FE01E80FF11DE35AFF4FF0829FB7F8940A
:100310000B8FEA89FB89808180620AC09FB7F894BD
:10032000EE89FF896083E889F98980818370806420
:1003300080839FBF81E090E0DF91CF911F910F916B
:10034000FF90EF9008951F920F920FB60F92112415
:100350000BB60F922F933F934F935F936F937F93BF
:100360008F939F93AF93BF93EF93FF9389E692E0B0
:1003700058D2FF91EF91BF91AF919F918F917F9153
:100380006F915F914F913F912F910F900BBE0F9006
:100390000FBE0F901F9018951F920F920FB60F92DD
:1003A00011240BB60F922F938F939F93EF93FF938C
:1003B000E0917902F0917A028081E0917F02F091E0
:1003C000800282FD12C09081809182028F5F8F73C4
:1003D00020918302821751F0E0918202F0E0E75908
:1003E000FD4F958F8093820201C08081FF91EF9134
:1003F0009F918F912F910F900BBE0F900FBE0F907A
:100400001F901895FC01538D448D252F30E0842FCB
:1004100090E0821B930B541710F0CF96089501972C
:100420000895FC01918D828D981761F0828DDF0116
:10043000A80FB11D5D968C91928D9F5F9F73928FD7
:1004400090E008958FEF9FEF0895FC01918D828DCC
:10045000981731F0828DE80FF11D858D90E0089599
:100460008FEF9FEF0895FC01918D228D892F90E0F1
:10047000805C9F4F821B91098F739927089580E0BC
:1004800090E0892B19F00ADF811125C080E090E00F
:10049000892B41F080E090E0892B21F00E94000040
:1004A00081111CC080E090E0892B41F080E090E059
:1004B000892B21F00E940000811113C080E090E0A0
:1004C000892BA1F080E090E0892B81F00E94000050
:1004D00081110AC008950E940000D8CF0E94000038
:1004E000E1CF0E940000EACF0C9400000895CF9362
:1004F000DF93DC014770552766277727FA0131978C
:10050000CD91DC911197E730F10530F48827EE5852
:10051000FF4F8F4F0C94C60FEC81FD8161E01BC033
:10052000EC81FD8165E017C0EC81FD8164E013C0C2
:10053000EC81FD8166E00FC0EC81FD8162E00BC0C3
:10054000EC81FD816AE007C0EC81FD8168E003C0B9
:10055000EC81FD8169E0CD01DF91CF911994CF93BA
:10056000DF93EC01CB01BA0126E030E040E050E03F
:100570000E94AA0F623071058105910559F18CF432
:100580006115710581059105F1F0613071058105F5
:100590009105C1F5E881F9810480F581E02D65E0E0
:1005A0002DC0643071058105910511F1D4F06530DD
:1005B00071058105910531F5E881F9810480F581A6
:1005C000E02D66E01BC0E881F9810480F581E02D13
:1005D00064E014C0E881F9810480F581E02D61E0D8
:1005E0000DC0E881F9810480F581E02D63E006C04B
:1005F000E881F9810480F581E02D62E0CE01DF9190
:10060000CF911994DF91CF910895437055276627B4
:100610007727DC01ED91FC910480F581E02D4230DB
:1006200051056105710571F0433051056105710592
:1006300059F0413051056105710511F065E005C0C3
:1006400066E003C06AE001C069E01994CF93DF93CC
:10065000EC01CB01BA0123E030E040E050E00E9421
:10066000AA0F613071058105910581F06230710535
:100670008105910591F0672B682B692BC1F4E88106
:10068000F9810480F581E02D64E00DC0E881F981F5
:100690000480F581E02D61E006C0E881F9810480E5
:1006A000F581E02D62E0CE01DF91CF911994DF91C9
:1006B000CF9108954370552766277727DC01ED9188
:1006C000FC910480F581E02D4230510561057105F2
:1006D00071F0433051056105710559F04130510504
:1006E0006105710511F062E005C063E003C061E0DF
:1006F00001C060E01994CF93DF93EC01E881F981A8
:100700000480F581E02D8A81811102C060E001C082
:1007100062E0CE011995E881F9810480F581E02D30
:100720008A81811102C061E001C063E0CE011995A8
:100730008CA59DA58230910538F0880F991F880FF0
:10074000991F05970197F1F7E881F9810480F581F8
:10075000E02D8A81811102C060E001C062E0CE011B
:10076000DF91CF911994CF93DF93EC0120E030E03B
:10077000A9016C897D898E899F890E944F0F181667
:100780001CF4E8A9F9A902C0EAA9FBA9DF91CF915D
:1007900019940F931F93DC0113960C91139710E09B
:1007A00009301105D8F5F8018827E758FF4F8F4F1A
:1007B0000C94C60FED91FC9111970084F185E02D0A
:1007C00029C0ED91FC9111970284F385E02D22C0A0
:1007D000ED91FC9111970484F585E02D1BC0ED91FE
:1007E000FC9111970684F785E02D14C0ED91FC91E2
:1007F00011970088F189E02D0DC0ED91FC911197C2
:100800000288F389E02D06C0ED91FC9111970488D0
:10081000F589E02DCD011F910F9119941F910F9132
:100820000895FC01848DDF01A80FB11DA35ABF4FAD
:100830002C91848D90E001968F739927848FA689DF
:10084000B7892C93A089B1898C91837080648C9333
:10085000938D848D981306C00288F389E02D8081E2
:100860008F7D80830895CF93DF93EC01888D88235B
:10087000C1F0EA89FB89808185FD05C0A889B98915
:100880008C9186FD0EC00FB607FCF5CF808185FFE9
:10089000F2CFA889B9898C9185FFEDCFCE01C1DF58
:1008A000E8CFDF91CF910895362F90E0FC01E85D0D
:1008B000FE4F4491FC01E851FE4F2491FC01EE559E
:1008C000FE4F9491992309F46CC0442309F455C058
:1008D00050E0FA013197E231F10508F04EC0882767
:1008E000EE57FF4F8F4F0C94C60F809180008F778B
:1008F00007C0809180008F7D03C080918000877F3A
:10090000809380003AC084B58F7702C084B58F7D14
:1009100084BD33C08091B0008F7703C08091B00058
:100920008F7D8093B00029C0809190008F7707C0A1
:10093000809190008F7D03C080919000877F80938D
:1009400090001BC08091A0008F7707C08091A0000D
:100950008F7D03C08091A000877F8093A0000DC091
:10096000809120018F7707C0809120018F7D03C087
:1009700080912001877F80932001E92FF0E0EE0F26
:10098000FF1FE259FE4FA591B4919FB7F894311122
:1009900004C08C912095282302C0EC912E2B2C931F
:1009A0009FBF0895CF93DF93FC0123812223F9F0A9
:1009B000EC01848131D38D812FD38B81843011F070
:1009C000883021F48E8128D38F8105C0833011F0C7
:1009D000863011F48E8120D38FA58F3F41F01CD338
:1009E0006EA581E068278FA5DF91CF915DCFDF9164
:1009F000CF910895CF93DF93FC012381222391F0BF
:100A0000EC010190F081E02D0480F581E02D60E0A3
:100A100019958FA58F3F31F0FFD26EA58FA5DF917D
:100A2000CF9142CFDF91CF910895CF92DF92EF9295
:100A3000FF920F931F93CF93DF93EC019B81943030
:100A400041F0983031F0933031F0963021F012E0DF
:100A500003C014E001C013E02496E12CF12CC62E53
:100A6000D12C01E0C6010E2C02C0959587950A9401
:100A7000E2F76C8180FD6027899116DF8FEFE81A1D
:100A8000F80AE11678F3DF91CF911F910F91FF9053
:100A9000EF90DF90CF9008953FB7F8948091650272
:100AA00090916602A0916702B091680226B5A89B5A
:100AB00005C02F3F19F00196A11DB11D3FBFBA2FF0
:100AC000A92F982F8827820F911DA11DB11DBC0150
:100AD000CD0142E0660F771F881F991F4A95D1F715
:100AE00008952FB7F894609161027091620280912D
:100AF0006302909164022FBF08951F920F920FB668
:100B00000F9211242F933F938F939F93AF93BF9393
:100B10008091610290916202A0916302B09164029F
:100B20003091600223E0230F2D3720F40196A11DA0
:100B3000B11D05C026E8230F0296A11DB11D20930B
:100B400060028093610290936202A0936302B0936B
:100B500064028091650290916602A0916702B09153
:100B600068020196A11DB11D8093650290936602F3
:100B7000A0936702B0936802BF91AF919F918F914C
:100B80003F912F910F900FBE0F901F9018954F928D
:100B90005F926F927F928F929F92AF92BF92CF920D
:100BA000DF92EF92FF92CF93DF93EC016A017B011A
:100BB00020E030E0A901C701B60138D787FF04C0A3
:100BC000F7FAF094F7F8F0948C8C9D8CAE8CBF8C77
:100BD000A7019601C501B40129D7882309F444C0AF
:100BE0006CA97DA98EA99FA927D72B013C01A7013C
:100BF0009601C501B4010E94B60E9B01AC01C30170
:100C0000B20179D70E941E0F6CAB7DAB8EAB9FAB50
:100C1000A701960160E070E080E090E40E94B60ECB
:100C20000E94570F26E53EE04DE25FE364D720E0E7
:100C300034E244E759E45FD768AF79AF8AAF9BAF3E
:100C4000CC8EDD8EEE8EFF8ECE01DF91CF91FF90A8
:100C5000EF90DF90CF90BF90AF909F908F907F905C
:100C60006F905F904F9097C0DF91CF91FF90EF9082
:100C7000DF90CF90BF90AF909F908F907F906F90BC
:100C80005F904F900895CF92DF92EF92FF920F9373
:100C90001F93CF93DF936C017A018B01C0E0D0E00A
:100CA000CE15DF0581F0D8016D918D01D601ED9152
:100CB000FC910190F081E02DC6011995892B11F06E
:100CC0002196EECF7E01C701DF91CF911F910F9149
:100CD000FF90EF90DF90CF900895CF93DF93EC01DA
:100CE00084E092E09983888381E08B831C861D8653
:100CF0001E861F86188A198A1A8A1B8A1C8A1D8AD0
:100D00001E8A1F8A80E090E0A0E8BFE3888F998F59
:100D1000AA8FBB8F1C8E1D8E1E8E1F8E88A399A33B
:100D2000AAA3BBA31CA21DA21EA21FA221E030E009
:100D30003DA72CA72FEF2FA718A619A61AA61BA60A
:100D40006C834D8324E02E8325E02F831EA61CAAEE
:100D50001DAA1EAA1FAA18AE19AE1AAE1BAE1CAE53
:100D60001DAE1EAE1FAEFE01E05CFF4F808391837F
:100D7000A283B3831A82188619861A861B86CE012F
:100D800011DE40E050E060E87FE3CE01DF91CF91DB
:100D9000FECE0E94CE0F4F925F926F927F928F9203
:100DA0009F92AF92BF92CF92DF92EF92FF920F93FA
:100DB0001F93CF93DF93EC01C888D988EA88FB881A
:100DC0008C859D85AE85BF85C81AD90AEA0AFB0ABB
:100DD0006C897D898E899F899B01AC018CD64B01E2
:100DE0005C016C8D7D8D8E8D9F8D9B01AC015AD7E2
:100DF0009B01AC01C501B401B9D70E941E0FC114FB
:100E0000D104E104F10499F4623071058105910582
:100E10000CF076C01CA21DA21EA21FA21C8A1D8A55
:100E20001E8A1F8A1CAA1DAA1EAA1FAAE4C00CA9FA
:100E30001DA92EA93FA91C141D041E041F04FCF4A7
:100E400010161106120613064CF46C157D058E055E
:100E50009F054CF52A81211153C025C001151105AC
:100E60002105310509F44CC06C157D058E059F05E3
:100E70000CF046C08A81882309F442C036C010169F
:100E8000110612061306ECF40027112798010C191D
:100E90001D092E093F0960177107820793071CF48B
:100EA0002A81222369F19B01AC0188279927DC0163
:100EB000821B930BA40BB50B8CAB9DABAEABBFAB46
:100EC0001FC00115110521053105D1F08824992491
:100ED00054018C189D08AE08BF08681579058A056D
:100EE0009B0574F48A8181110BC030952095109573
:100EF00001951F4F2F4F3F4F0CAB1DAB2EAB3FABA0
:100F00008CA89DA8AEA8BFA881149104A104B10427
:100F100089F488AD99ADAAADBBAD8CAF9DAFAEAF36
:100F2000BFAF81E01C141D041E041F040CF080E000
:100F30008A8338C0CCACDDACEEACFFACA701960127
:100F4000C701B601AFD62B013C01C501B40174D570
:100F500020E030E040E850E4CED520E030E040E84A
:100F60005FE3A0D69B01AC01C301B201FFD69B0198
:100F7000AC01C701B60195D63B016C01FE01E05CF6
:100F8000FF4FE080F180028113819701A80187D78C
:100F9000181614F473018601C701D8018CAF9DAFF8
:100FA000AEAFBFAF3FEF831A930AA30AB30A8CAA6E
:100FB0009DAAAEAABFAACCACDDACEEACFFACC7011B
:100FC000B60141D76CA37DA38EA39FA3A701960171
:100FD00060E074E284E799E4C9D66C8B7D8B8E8BDC
:100FE0009F8B2A81211107C0DC01CB01B0588C8B6B
:100FF0009D8BAE8BBF8BDF91CF911F910F91FF9097
:10100000EF90DF90CF90BF90AF909F908F907F90A8
:101010006F905F904F90089590E0FC01E851FE4F73
:101020002491FC01EE55FE4F8491882399F090E0C5
:10103000880F991FFC01E857FE4FA591B491FC0160
:10104000E259FE4F859194918FB7F894EC91E22B81
:10105000EC938FBF0895CF92DF92EF92FF92CF93E0
:10106000DF93EC0120E030E04AE754E4688D798DAD
:101070008A8D9B8DDBD4882309F43AC080E090E010
:10108000AAE7B4E4888F998FAA8FBB8FFE01E05C3A
:10109000FF4F80839183A283B3838CA99DA9AEA9BE
:1010A000BFA9181619061A061B0614F56C897D8946
:1010B0008E899F899B01AC011ED56B017C016C8DD3
:1010C0007D8D8E8D9F8D9B01AC01ECD59B01AC017C
:1010D000C701B6014BD6B2D66CAB7DAB8EAB9FAB26
:1010E000CE01DF91CF91FF90EF90DF90CF9053CE64
:1010F000DF91CF91FF90EF90DF90CF900895009710
:1011000061F0FC0101900020E9F73197AF01481B25
:10111000590BBC0189E692E0B6CD80E090E00895DD
:101120008F929F92AF92BF920F931F93CF93DF93B3
:10113000CDB7DEB7A1970FB6F894DEBF0FBECDBF17
:1011400019A2423008F44AE08E010F5D1F4F842E31
:10115000912CA12CB12CA501940181D5E62FB901C8
:10116000CA0101501109EA3014F4E05D01C0E95CE4
:10117000D801EC93232B242B252B69F7C801BFDF63
:10118000A1960FB6F894DEBF0FBECDBFDF91CF9111
:101190001F910F91BF90AF909F908F9008958F9265
:1011A0009F92AF92BF92CF92DF92EF92FF9274DC48
:1011B0004B015C0188EEC82E83E0D82EE12CF12C87
:1011C0006BDCDC01CB0188199909AA09BB09883EAF
:1011D0009340A105B105A0F321E0C21AD108E108AE
:1011E000F10888EE880E83E0981EA11CB11CC11482
:1011F000D104E104F10421F7FF90EF90DF90CF904C
:10120000BF90AF909F908F9008958F929F92AF92D2
:10121000BF92CF92DF92EF92FF92CF93DF93EC01D8
:101220008C889D88AE88BF8820E030E0A901C50188
:10123000B401FCD3882309F449C0A5019401C50178
:10124000B40159D46B017C016C8D7D8D8E8D9F8D89
:101250009B01AC0127D59B01AC01C701B60186D526
:10126000EDD56B017C012FEFC21AD20AE20AF20A15
:1012700020E030E0A901C501B40111D64C855D859F
:101280006E857F8588889988AA88BB8818162CF473
:101290004C0D5D1D6E1D7F1D04C04C195D096E094E
:1012A0007F0984169506A606B70681F0488B598BF0
:1012B0006A8B7B8BCE01DF91CF91FF90EF90DF9017
:1012C000CF90BF90AF909F908F9065CDDF91CF91E1
:1012D000FF90EF90DF90CF90BF90AF909F908F9056
:1012E00008951F93CF93DF9300D01F92CDB7DEB741
:1012F00089E692E096D889E692E093D810E08A33A6
:1013000071F0E1E0F0E0EC0FFD1FE10FF11D17FDC2
:10131000FA9580831F5F89E692E083D8F0CFCE01F3
:1013200001965FD3182F89E692E07BD8BC0177271E
:10133000605371096230710528F4812FB5DA02C05B
:101340008D3029F089E692E06CD88A30C9F789E6B9
:1013500092E07BD88A3019F489E692E062D80F9047
:101360000F900F900F90DF91CF911F910895789477
:1013700084B5826084BD84B5816084BD85B582609A
:1013800085BD85B5816085BD80916E00816080934B
:101390006E001092810080918100826080938100B4
:1013A00080918100816080938100809180008160C4
:1013B000809380008091B10084608093B10080911F
:1013C000B00081608093B000809191008260809332
:1013D00091008091910081608093910080919000B4
:1013E0008160809390008091A10082608093A10031
:1013F0008091A10081608093A1008091A000816014
:101400008093A000809121018260809321018091CE
:10141000210181608093210180912001816080936E
:10142000200180917A00846080937A0080917A0014
:10143000826080937A0080917A00816080937A0044
:1014400080917A00806880937A001092C100109297
:1014500048031092490310924A0310924B031092D2
:1014600008031092090310920A0310920B0339DB50
:101470006B017C014B015C0128EB820E2BE0921E7C
:10148000A11CB11C2EDB6C157D058E059F0528F077
:1014900086169706A806B906A8F781DEE0917902BC
:1014A000F0917A0282E08083E0917502F0917602F9
:1014B0001082E0917702F091780280E180831092AF
:1014C0008102E0917D02F0917E0286E08083E091CE
:1014D0007B02F0917C02808180618083E0917B02BD
:1014E000F0917C02808188608083E0917B02F091A2
:1014F0007C02808180688083E0917B02F0917C0295
:1015000080818F7D8083EDDA6093080370930903F7
:1015100080930A0390930B038CE292E0F0DDE1DA12
:101520006B017C014B015C013AE0830E911CA11C14
:10153000B11CD7DA6C157D058E059F0528F086163F
:101540009706A806B906A8F781E080931C03C9DABC
:10155000609308037093090380930A0390930B032D
:101560008DE392E0CCDD86E157DD88E155DD8AE14F
:1015700053DD8CE151DD8EE14FDD80E24DDD82E215
:101580004BDD84E249DD86E247DD88E245DD8AE223
:1015900043DD8CE241DD8EE23FDD87E13DDD89E127
:1015A0003BDD8BE139DD8DE137DD8FE135DD81E23A
:1015B00033DD83E231DD85E22FDD87E22DDD89E257
:1015C0002BDD8BE229DD8DE227DD85EB94E043DD29
:1015D00040E050E06AEF73E485EB94E0D8DA81E70D
:1015E00094E039DD40E050E06AEF73E481E794E095
:1015F000CEDA8DE294E02FDD40E050E06AEF73E454
:101600008DE294E0C4DA89EE93E025DD40E050E01D
:101610006AEF73E489EE93E0BADA85EA93E01BDDC2
:1016200040E050E06AEF73E485EA93E0B0DA81E6E7
:1016300093E011DD40E050E06AEF73E481E693E06F
:10164000A6DAE0916003EA3068F481E08E0F8093BF
:101650006003F0E0EE0FFF1FE45BFC4F85EB94E0CE
:1016600091838083E0916003EA3068F481E08E0F1B
:1016700080936003F0E0EE0FFF1FE45BFC4F81E717
:1016800094E0918380838DE0C7DC84EF882E9924D9
:101690009394A12CB12C25DA672B682B692B31F49C
:1016A00020DA623071058105910568F11ADAC0907F
:1016B0005C02D0905D02E0905E02F0905F026C15DB
:1016C0007D058E059F0540F460935C0270935D027A
:1016D00080935E0290935F02C0905C02D0905D02A6
:1016E000E0905E02F0905F029B01AC012C193D0975
:1016F0004E095F0969017A013AEFC316D104E1048A
:10170000F10408F059C061E08DE0CED848DD60E01A
:101710008DE0CAD844DD85EB94E09DDC40E85FE4D1
:1017200063EC77E485EB94E032DA81E794E093DCD4
:1017300040E85FE463EC77E481E794E028DA8DE247
:1017400094E089DC40E85FE463EC77E48DE294E0C8
:101750001EDA89EE93E07FDC40E85FE463EC77E437
:1017600089EE93E014DA85EA93E075DC40E85FE403
:1017700063EC77E485EA93E00ADA81E693E06BDCD8
:1017800040E85FE463EC77E481E693E000DA85EB20
:1017900094E03BDD81E794E038DD8DE294E035DDD7
:1017A00089EE93E032DD85EA93E02FDD81E693E078
:1017B0002CDD0E943F026FCF60935C0270935D024C
:1017C00080935E0290935F028092140390921503BF
:1017D000A0921603B09217031092180310921903E7
:1017E00010921A0310921B0380910C0390910D0329
:1017F000A0910E03B0910F038093100390931103F7
:10180000A0931203B09313036CD960930C037093ED
:101810000D0380930E0390930F0389E692E00E94DC
:101820002502843609F45DDD5CD96093080370936A
:10183000090380930A0390930B0353D96B017C0136
:1018400084E492E05CDC4AE061E070E080E090E0FB
:1018500067DC8BE492E053DC4AE0C701B60160DC50
:101860008DE492E04CDC80910C0390910D03A091EB
:101870000E03B0910F03A7019601281B390B4A0BE9
:101880005B0BCA01B9014AE04BDC8DE492E037DC26
:1018900080910C0390910D03A0910E03B0910F0362
:1018A000C0901003D0901103E0901203F090130346
:1018B000BC01CD016C197D098E099F094AE030DC1D
:1018C0008FE492E01CDC0DD94AE02ADC81E592E04D
:1018D00016DC88E592E013DC04D96B017C012B0156
:1018E0003C0135E0430E511C611C711CFAD86C158B
:1018F0007D058E059F0528F0461657066806790671
:10190000A8F789E692E00E942502843609F4E9DC12
:10191000E8D860930C0370930D0380930E039093AB
:101920000F03F1CEE9E6F2E01382128288EE93E033
:10193000A0E0B0E084839583A683B7838EE192E034
:101940009183808385EC90E09587848784EC90E098
:101950009787868780EC90E0918B808B81EC90E07C
:10196000938B828B82EC90E0958B848B86EC90E05D
:10197000978B868B118E128E138E148EE6E0F3E019
:101980001682178210861186128613861486158693
:1019900016861786108A118A128A138A148A158A63
:1019A0004CE063E085EB94E098D94AE065E081E79C
:1019B00094E093D948E067E08DE294E08ED946E068
:1019C00069E089EE93E089D944E06BE085EA93E031
:1019D00084D942E06DE081E693E07FD91092600304
:1019E0000895FC0188279927E89421912032E9F392
:1019F000293010F02E30C8F32B3239F02D3231F46B
:101A0000689403C00BD0820F911D219120532A307E
:101A1000C8F31EF4909581959F4F08957AE0979FA3
:101A2000902D879F802D910D1124089540D008F4AA
:101A300081E00895E89409C097FB3EF49095809565
:101A4000709561957F4F8F4F9F4F9923A9F0F92F84
:101A500096E9BB279395F695879577956795B79502
:101A6000F111F8CFFAF4BB0F11F460FF1BC06F5FE8
:101A70007F4F8F4F9F4F16C0882311F096E911C0FA
:101A8000772321F09EE8872F762F05C0662371F01B
:101A900096E8862F70E060E02AF09A95660F771F2F
:101AA000881FDAF7880F9695879597F90895990F0B
:101AB0000008550FAA0BE0E8FEEF16161706E80718
:101AC000F907C0F012161306E407F50798F0621B39
:101AD000730B840B950B39F40A2661F0232B242B0E
:101AE000252B21F408950A2609F4A140A6958FEF2D
:101AF000811D811D08950BD078C069D028F06ED06B
:101B000018F0952309F05AC05FC01124A2C07ED0FE
:101B1000A0F3959FD1F3950F50E0551F629FF00100
:101B2000729FBB27F00DB11D639FAA27F00DB11D59
:101B3000AA1F649F6627B00DA11D661F829F2227E2
:101B4000B00DA11D621F739FB00DA11D621F839F69
:101B5000A00D611D221F749F3327A00D611D231F3F
:101B6000849F600D211D822F762F6A2F11249F578D
:101B700050408AF0E1F088234AF0EE0FFF1FBB1FB0
:101B8000661F771F881F91505040A9F79E3F51054F
:101B900070F014C05EC05F3FECF3983EDCF38695B6
:101BA00077956795B795F795E7959F5FC1F7FE2BFA
:101BB000880F911D9695879597F9089597F99F67D6
:101BC00080E870E060E008959FEF80EC08950024C5
:101BD0000A941616170618060906089500240A9492
:101BE00012161306140605060895092E0394000C18
:101BF00011F4882352F0BB0F40F4BF2B11F460FFA7
:101C000004C06F5F7F4F8F4F9F4F089557FD9058CF
:101C1000440F551F59F05F3F71F04795880F97FBB0
:101C2000991F61F09F3F79F087950895121613066A
:101C30001406551FF2CF4695F1DF08C01616170699
:101C40001806991FF1CF86957105610508940895CE
:101C5000E894BB2766277727CB0197F90895A1E27F
:101C60001A2EAA1BBB1BFD010DC0AA1FBB1FEE1F16
:101C7000FF1FA217B307E407F50720F0A21BB30B61
:101C8000E40BF50B661F771F881F991F1A9469F7DD
:101C900060957095809590959B01AC01BD01CF0139
:101CA00008955058BB27AA270ED09FCF90DF30F061
:101CB00095DF20F031F49F3F11F41EF485CF0EF430
:101CC000E095E7FB7BCFE92FA1DF80F3BA1762072E
:101CD00073078407950718F071F49EF5B9CF0EF4D9
:101CE000E0950B2EBA2FA02D0B01B90190010C012C
:101CF000CA01A0011124FF27591B99F0593F50F444
:101D0000503E68F11A16F040A22F232F342F44279B
:101D1000585FF3CF469537952795A795F040539593
:101D2000C9F77EF41F16BA0B620B730B840BBAF063
:101D30009150A1F0FF0FBB1F661F771F881FC2F7CE
:101D40000EC0BA0F621F731F841F48F487957795E2
:101D50006795B795F7959E3F08F0B3CF9395880F99
:101D600008F09927EE0F9795879508950CD03DCFF1
:101D700035DF40F02CDF30F021F45F3F19F01ECF4B
:101D8000511167CF21CF42DF98F39923C9F355232F
:101D9000B1F3951B550BBB27AA276217730784075E
:101DA00038F09F5F5F4F220F331F441FAA1FA9F314
:101DB00033D00E2E3AF0E0E830D091505040E69506
:101DC000001CCAF729D0FE2F27D0660F771F881F67
:101DD000BB1F261737074807AB07B0E809F0BB0B56
:101DE000802DBF01FF2793585F4F2AF09E3F51057A
:101DF00068F0E4CE2ECF5F3FECF3983EDCF386959F
:101E000077956795B795F7959F5FC9F7880F911DEF
:101E10009695879597F90895E1E0660F771F881FDB
:101E2000BB1F621773078407BA0720F0621B730B8E
:101E3000840BBA0BEE1F88F7E095089504D06894E0
:101E4000B11107CF0895EADE88F09F5790F0B92FBF
:101E50009927B751A0F0D1F0660F771F881F991FFF
:101E60001AF0BA95C9F712C0B13081F0F1DEB1E0D5
:101E70000895EECE672F782F8827B85F39F0B93FE5
:101E8000CCF3869577956795B395D9F73EF4909501
:101E90008095709561957F4F8F4F9F4F089507DE16
:101EA00008F48FEF089511F40EF48ECE3EC0B6DE26
:101EB000D0F39923D9F3CEF39F57550B87FF43D027
:101EC0000024A0E640EA900180585695979528F4A2
:101ED000805C660F771F881F20F02617370748079A
:101EE00030F4621B730B840B202931294A2BA695F1
:101EF00017940794202531254A2758F7660F771F36
:101F0000881F20F026173707480730F4620B730B41
:101F1000840B200D311D411DA09581F7B901842F3F
:101F20009158880F9695879508959F3F31F091506D
:101F300020F4879577956795B795880F911D9695AD
:101F4000879597F9089591505040660F771F881F25
:101F5000D2F70895052E97FB16F400940FD057FD85
:101F600005D07DDE07FC02D046F408C050954095B0
:101F7000309521953F4F4F4F5F4F08959095809535
:101F8000709561957F4F8F4F9F4F0895EE0FFF1F04
:101F9000881F8BBF0790F691E02D199481E090E0A7
:081FA000F89400C0F894FFCF93
:101FA80000000000FA04D2041505C903B3037B033B
:101FB8005A0326030503AF02770200000000570109
:101FC800430602023304330211022502564D4450DF
:101FD800565F317C315F564D4450560A00564D4489
:101FE80050525F00564D4450455F003A323A007CEB
:0C1FF800005F564D445045000D0A0000EB
:00000001FF
